{
  "_format": "hh-sol-artifact-1",
  "contractName": "Grant",
  "sourceName": "contracts/Grant.sol",
  "abi": [
    {
      "anonymous": false,
      "inputs": [
        {
          "indexed": false,
          "internalType": "address",
          "name": "previousAdmin",
          "type": "address"
        },
        {
          "indexed": false,
          "internalType": "address",
          "name": "newAdmin",
          "type": "address"
        }
      ],
      "name": "AdminChanged",
      "type": "event"
    },
    {
      "anonymous": false,
      "inputs": [
        {
          "indexed": true,
          "internalType": "address",
          "name": "beacon",
          "type": "address"
        }
      ],
      "name": "BeaconUpgraded",
      "type": "event"
    },
    {
      "anonymous": false,
      "inputs": [
        {
          "indexed": true,
          "internalType": "uint96",
          "name": "applicationId",
          "type": "uint96"
        },
        {
          "indexed": false,
          "internalType": "uint96",
          "name": "milestoneId",
          "type": "uint96"
        },
        {
          "indexed": false,
          "internalType": "address",
          "name": "asset",
          "type": "address"
        },
        {
          "indexed": false,
          "internalType": "address",
          "name": "sender",
          "type": "address"
        },
        {
          "indexed": false,
          "internalType": "uint256",
          "name": "amount",
          "type": "uint256"
        },
        {
          "indexed": false,
          "internalType": "bool",
          "name": "isP2P",
          "type": "bool"
        },
        {
          "indexed": false,
          "internalType": "uint256",
          "name": "time",
          "type": "uint256"
        }
      ],
      "name": "DisburseReward",
      "type": "event"
    },
    {
      "anonymous": false,
      "inputs": [
        {
          "indexed": true,
          "internalType": "uint96",
          "name": "applicationId",
          "type": "uint96"
        },
        {
          "indexed": false,
          "internalType": "uint96",
          "name": "milestoneId",
          "type": "uint96"
        },
        {
          "indexed": false,
          "internalType": "address",
          "name": "asset",
          "type": "address"
        },
        {
          "indexed": false,
          "internalType": "address",
          "name": "sender",
          "type": "address"
        },
        {
          "indexed": false,
          "internalType": "uint256",
          "name": "amount",
          "type": "uint256"
        },
        {
          "indexed": false,
          "internalType": "uint256",
          "name": "time",
          "type": "uint256"
        }
      ],
      "name": "DisburseRewardFailed",
      "type": "event"
    },
    {
      "anonymous": false,
      "inputs": [
        {
          "indexed": false,
          "internalType": "address",
          "name": "asset",
          "type": "address"
        },
        {
          "indexed": false,
          "internalType": "uint256",
          "name": "amount",
          "type": "uint256"
        },
        {
          "indexed": false,
          "internalType": "uint256",
          "name": "time",
          "type": "uint256"
        }
      ],
      "name": "FundsDepositFailed",
      "type": "event"
    },
    {
      "anonymous": false,
      "inputs": [
        {
          "indexed": false,
          "internalType": "address",
          "name": "asset",
          "type": "address"
        },
        {
          "indexed": false,
          "internalType": "uint256",
          "name": "amount",
          "type": "uint256"
        },
        {
          "indexed": false,
          "internalType": "address",
          "name": "recipient",
          "type": "address"
        },
        {
          "indexed": false,
          "internalType": "uint256",
          "name": "time",
          "type": "uint256"
        }
      ],
      "name": "FundsWithdrawn",
      "type": "event"
    },
    {
      "anonymous": false,
      "inputs": [
        {
          "indexed": true,
          "internalType": "uint96",
          "name": "workspaceId",
          "type": "uint96"
        },
        {
          "indexed": false,
          "internalType": "string",
          "name": "metadataHash",
          "type": "string"
        },
        {
          "indexed": false,
          "internalType": "bool",
          "name": "active",
          "type": "bool"
        },
        {
          "indexed": false,
          "internalType": "uint256",
          "name": "time",
          "type": "uint256"
        }
      ],
      "name": "GrantUpdated",
      "type": "event"
    },
    {
      "anonymous": false,
      "inputs": [
        {
          "indexed": false,
          "internalType": "uint8",
          "name": "version",
          "type": "uint8"
        }
      ],
      "name": "Initialized",
      "type": "event"
    },
    {
      "anonymous": false,
      "inputs": [
        {
          "indexed": true,
          "internalType": "address",
          "name": "previousOwner",
          "type": "address"
        },
        {
          "indexed": true,
          "internalType": "address",
          "name": "newOwner",
          "type": "address"
        }
      ],
      "name": "OwnershipTransferred",
      "type": "event"
    },
    {
      "anonymous": false,
      "inputs": [
        {
          "indexed": true,
          "internalType": "uint96",
          "name": "applicationId",
          "type": "uint96"
        },
        {
          "indexed": false,
          "internalType": "uint96",
          "name": "milestoneId",
          "type": "uint96"
        },
        {
          "indexed": false,
          "internalType": "address",
          "name": "sender",
          "type": "address"
        },
        {
          "indexed": false,
          "internalType": "bytes",
          "name": "transactionHash",
          "type": "bytes"
        },
        {
          "indexed": false,
          "internalType": "uint256",
          "name": "amount",
          "type": "uint256"
        },
        {
          "indexed": false,
          "internalType": "uint256",
          "name": "time",
          "type": "uint256"
        }
      ],
      "name": "TransactionRecord",
      "type": "event"
    },
    {
      "anonymous": false,
      "inputs": [
        {
          "indexed": true,
          "internalType": "address",
          "name": "implementation",
          "type": "address"
        }
      ],
      "name": "Upgraded",
      "type": "event"
    },
    {
      "inputs": [],
      "name": "active",
      "outputs": [
        {
          "internalType": "bool",
          "name": "",
          "type": "bool"
        }
      ],
      "stateMutability": "view",
      "type": "function"
    },
    {
      "inputs": [],
      "name": "applicationReg",
      "outputs": [
        {
          "internalType": "contract IApplicationRegistry",
          "name": "",
          "type": "address"
        }
      ],
      "stateMutability": "view",
      "type": "function"
    },
    {
      "inputs": [
        {
          "internalType": "uint96",
          "name": "_applicationId",
          "type": "uint96"
        },
        {
          "internalType": "uint96",
          "name": "_milestoneId",
          "type": "uint96"
        },
        {
          "internalType": "contract IERC20",
          "name": "_erc20Interface",
          "type": "address"
        },
        {
          "internalType": "uint256",
          "name": "_amount",
          "type": "uint256"
        }
      ],
      "name": "disburseReward",
      "outputs": [],
      "stateMutability": "nonpayable",
      "type": "function"
    },
    {
      "inputs": [
        {
          "internalType": "uint96",
          "name": "_applicationId",
          "type": "uint96"
        },
        {
          "internalType": "uint96",
          "name": "_milestoneId",
          "type": "uint96"
        },
        {
          "internalType": "contract IERC20",
          "name": "_erc20Interface",
          "type": "address"
        },
        {
          "internalType": "uint256",
          "name": "_amount",
          "type": "uint256"
        }
      ],
      "name": "disburseRewardP2P",
      "outputs": [],
      "stateMutability": "nonpayable",
      "type": "function"
    },
    {
      "inputs": [],
      "name": "incrementApplicant",
      "outputs": [],
      "stateMutability": "nonpayable",
      "type": "function"
    },
    {
      "inputs": [
        {
          "internalType": "uint96",
          "name": "_workspaceId",
          "type": "uint96"
        },
        {
          "internalType": "string",
          "name": "_metadataHash",
          "type": "string"
        },
        {
          "internalType": "contract IWorkspaceRegistry",
          "name": "_workspaceReg",
          "type": "address"
        },
        {
          "internalType": "contract IApplicationRegistry",
          "name": "_applicationReg",
          "type": "address"
        },
        {
          "internalType": "address",
          "name": "_grantFactoryOwner",
          "type": "address"
        }
      ],
      "name": "initialize",
      "outputs": [],
      "stateMutability": "nonpayable",
      "type": "function"
    },
    {
      "inputs": [],
      "name": "metadataHash",
      "outputs": [
        {
          "internalType": "string",
          "name": "",
          "type": "string"
        }
      ],
      "stateMutability": "view",
      "type": "function"
    },
    {
      "inputs": [],
      "name": "numApplicants",
      "outputs": [
        {
          "internalType": "uint96",
          "name": "",
          "type": "uint96"
        }
      ],
      "stateMutability": "view",
      "type": "function"
    },
    {
      "inputs": [],
      "name": "owner",
      "outputs": [
        {
          "internalType": "address",
          "name": "",
          "type": "address"
        }
      ],
      "stateMutability": "view",
      "type": "function"
    },
    {
      "inputs": [],
      "name": "proxiableUUID",
      "outputs": [
        {
          "internalType": "bytes32",
          "name": "",
          "type": "bytes32"
        }
      ],
      "stateMutability": "view",
      "type": "function"
    },
    {
      "inputs": [
        {
          "internalType": "uint96",
          "name": "_applicationId",
          "type": "uint96"
        },
        {
          "internalType": "uint96",
          "name": "_milestoneId",
          "type": "uint96"
        },
        {
          "internalType": "bytes",
          "name": "_transactionHash",
          "type": "bytes"
        },
        {
          "internalType": "uint256",
          "name": "_amount",
          "type": "uint256"
        }
      ],
      "name": "recordTransaction",
      "outputs": [],
      "stateMutability": "nonpayable",
      "type": "function"
    },
    {
      "inputs": [],
      "name": "renounceOwnership",
      "outputs": [],
      "stateMutability": "nonpayable",
      "type": "function"
    },
    {
      "inputs": [
        {
          "internalType": "address",
          "name": "newOwner",
          "type": "address"
        }
      ],
      "name": "transferOwnership",
      "outputs": [],
      "stateMutability": "nonpayable",
      "type": "function"
    },
    {
      "inputs": [
        {
          "internalType": "string",
          "name": "_metadataHash",
          "type": "string"
        }
      ],
      "name": "updateGrant",
      "outputs": [],
      "stateMutability": "nonpayable",
      "type": "function"
    },
    {
      "inputs": [
        {
          "internalType": "bool",
          "name": "_canAcceptApplication",
          "type": "bool"
        }
      ],
      "name": "updateGrantAccessibility",
      "outputs": [],
      "stateMutability": "nonpayable",
      "type": "function"
    },
    {
      "inputs": [
        {
          "internalType": "address",
          "name": "newImplementation",
          "type": "address"
        }
      ],
      "name": "upgradeTo",
      "outputs": [],
      "stateMutability": "nonpayable",
      "type": "function"
    },
    {
      "inputs": [
        {
          "internalType": "address",
          "name": "newImplementation",
          "type": "address"
        },
        {
          "internalType": "bytes",
          "name": "data",
          "type": "bytes"
        }
      ],
      "name": "upgradeToAndCall",
      "outputs": [],
      "stateMutability": "payable",
      "type": "function"
    },
    {
      "inputs": [
        {
          "internalType": "contract IERC20",
          "name": "_erc20Interface",
          "type": "address"
        },
        {
          "internalType": "uint256",
          "name": "_amount",
          "type": "uint256"
        },
        {
          "internalType": "address",
          "name": "_recipient",
          "type": "address"
        }
      ],
      "name": "withdrawFunds",
      "outputs": [],
      "stateMutability": "nonpayable",
      "type": "function"
    },
    {
      "inputs": [],
      "name": "workspaceId",
      "outputs": [
        {
          "internalType": "uint96",
          "name": "",
          "type": "uint96"
        }
      ],
      "stateMutability": "view",
      "type": "function"
    },
    {
      "inputs": [],
      "name": "workspaceReg",
      "outputs": [
        {
          "internalType": "contract IWorkspaceRegistry",
          "name": "",
          "type": "address"
        }
      ],
      "stateMutability": "view",
      "type": "function"
    }
  ],
  "bytecode": "0x60a06040523060601b60805234801561001757600080fd5b5060805160601c6120a9610052600039600081816108320152818161087201528181610adb01528181610b1b0152610bae01526120a96000f3fe60806040526004361061011f5760003560e01c8063715018a6116100a0578063c5a1d7f011610064578063c5a1d7f01461032b578063d087853c1461034d578063d367d89e1461036d578063f2fde38b1461038d578063fcdd9280146103ad57600080fd5b8063715018a61461027f57806376a3d5ce146102945780638da5cb5b146102b457806398936bf1146102e6578063afa30f021461030657600080fd5b80633659cfe6116100e75780633659cfe6146101e957806347c6b45e146102095780634f1ef2861461022957806352d1902d1461023c57806370c0c0231461025f57600080fd5b806302fb0c5e146101245780630846aa34146101535780631670af6c1461017557806324de8f131461019557806330eb107f146101d4575b600080fd5b34801561013057600080fd5b5060cb5461013e9060ff1681565b60405190151581526020015b60405180910390f35b34801561015f57600080fd5b5061017361016e366004611aa5565b6103cd565b005b34801561018157600080fd5b50610173610190366004611b93565b6104d0565b3480156101a157600080fd5b5060c9546101bc90600160601b90046001600160601b031681565b6040516001600160601b03909116815260200161014a565b3480156101e057600080fd5b5061017361073b565b3480156101f557600080fd5b50610173610204366004611949565b610827565b34801561021557600080fd5b50610173610224366004611a26565b610907565b610173610237366004611983565b610ad0565b34801561024857600080fd5b50610251610ba1565b60405190815260200161014a565b34801561026b57600080fd5b5061017361027a366004611a68565b610c54565b34801561028b57600080fd5b50610173610de4565b3480156102a057600080fd5b506101736102af366004611b93565b610e1a565b3480156102c057600080fd5b506097546001600160a01b03165b6040516001600160a01b03909116815260200161014a565b3480156102f257600080fd5b506101736103013660046119d3565b610fd8565b34801561031257600080fd5b5060cb546102ce9061010090046001600160a01b031681565b34801561033757600080fd5b506103406110d5565b60405161014a9190611c28565b34801561035957600080fd5b50610173610368366004611b2d565b611163565b34801561037957600080fd5b5060c9546101bc906001600160601b031681565b34801561039957600080fd5b506101736103a8366004611949565b61125d565b3480156103b957600080fd5b5060cc546102ce906001600160a01b031681565b60006103d960016112f5565b905080156103f1576000805461ff0019166101001790555b6103f9611382565b60c980546bffffffffffffffffffffffff19166001600160601b03881617905560cb805460ff1916600117905584516104399060ca90602088019061180c565b5060cb8054610100600160a81b0319166101006001600160a01b03868116919091029190911790915560cc80546001600160a01b0319169186169190911790556104828261125d565b80156104c8576000805461ff0019169055604051600181527f7f26b83ff96e1f2b6a682f133852f6798a09c465da95921460cefb38474024989060200160405180910390a15b505050505050565b60cc5460c954604051633183c01760e21b81526001600160a01b039092169163c60f005c9161050f916001600160601b03909116903390600401611ebe565b60206040518083038186803b15801561052757600080fd5b505afa15801561053b573d6000803e3d6000fd5b505050506040513d601f19601f8201168201806040525081019061055f91906119f0565b6105845760405162461bcd60e51b815260040161057b90611e87565b60405180910390fd5b836001600160601b03167fb06d588651ab864052a364889f105685c62f49f056fd5f6d607ecb775840117c848433856001426040516105c896959493929190611ee0565b60405180910390a260cb5460405163ea3b29c760e01b81526001600160601b03861660048201526001600160a01b03848116926323b872dd9233926101009092049091169063ea3b29c79060240160206040518083038186803b15801561062e57600080fd5b505afa158015610642573d6000803e3d6000fd5b505050506040513d601f19601f820116820180604052508101906106669190611966565b6040516001600160e01b031960e085901b1681526001600160a01b03928316600482015291166024820152604481018490526064015b602060405180830381600087803b1580156106b657600080fd5b505af11580156106ca573d6000803e3d6000fd5b505050506040513d601f19601f820116820180604052508101906106ee91906119f0565b6107355760405162461bcd60e51b81526020600482015260186024820152774661696c656420746f207472616e736665722066756e647360401b604482015260640161057b565b50505050565b60cb5461010090046001600160a01b031633146107a85760405162461bcd60e51b815260206004820152602560248201527f556e617574686f72697365643a204e6f74206170706c69636174696f6e526567604482015264697374727960d81b606482015260840161057b565b60c954600160601b90046001600160601b03166107c6816001611f66565b6001600160601b0316116107dc576107dc612006565b600160c9600c8282829054906101000a90046001600160601b03166108019190611f66565b92506101000a8154816001600160601b0302191690836001600160601b03160217905550565b306001600160a01b037f00000000000000000000000000000000000000000000000000000000000000001614156108705760405162461bcd60e51b815260040161057b90611d21565b7f00000000000000000000000000000000000000000000000000000000000000006001600160a01b03166108b9600080516020612056833981519152546001600160a01b031690565b6001600160a01b0316146108df5760405162461bcd60e51b815260040161057b90611d6d565b6108e8816113b1565b60408051600080825260208201909252610904918391906113db565b50565b60cc5460c954604051633183c01760e21b81526001600160a01b039092169163c60f005c91610946916001600160601b03909116903390600401611ebe565b60206040518083038186803b15801561095e57600080fd5b505afa158015610972573d6000803e3d6000fd5b505050506040513d601f19601f8201168201806040525081019061099691906119f0565b6109b25760405162461bcd60e51b815260040161057b90611e87565b604080516001600160a01b0385811682526020820185905283168183015242606082015290517f81b7e06bddc0f5d18bd1f59d65064c763750eca9aed3ca08795fe5bfffcc9eb69181900360800190a160405163a9059cbb60e01b81526001600160a01b0382811660048301526024820184905284169063a9059cbb90604401602060405180830381600087803b158015610a4c57600080fd5b505af1158015610a60573d6000803e3d6000fd5b505050506040513d601f19601f82011682018060405250810190610a8491906119f0565b610acb5760405162461bcd60e51b81526020600482015260186024820152774661696c656420746f207472616e736665722066756e647360401b604482015260640161057b565b505050565b306001600160a01b037f0000000000000000000000000000000000000000000000000000000000000000161415610b195760405162461bcd60e51b815260040161057b90611d21565b7f00000000000000000000000000000000000000000000000000000000000000006001600160a01b0316610b62600080516020612056833981519152546001600160a01b031690565b6001600160a01b031614610b885760405162461bcd60e51b815260040161057b90611d6d565b610b91826113b1565b610b9d828260016113db565b5050565b6000306001600160a01b037f00000000000000000000000000000000000000000000000000000000000000001614610c415760405162461bcd60e51b815260206004820152603860248201527f555550535570677261646561626c653a206d757374206e6f742062652063616c60448201527f6c6564207468726f7567682064656c656761746563616c6c0000000000000000606482015260840161057b565b5060008051602061205683398151915290565b60cc5460c954604051633183c01760e21b81526001600160a01b039092169163c60f005c91610c93916001600160601b03909116903390600401611ebe565b60206040518083038186803b158015610cab57600080fd5b505afa158015610cbf573d6000803e3d6000fd5b505050506040513d601f19601f82011682018060405250810190610ce391906119f0565b610cff5760405162461bcd60e51b815260040161057b90611e87565b60c954600160601b90046001600160601b031615610d7d5760405162461bcd60e51b815260206004820152603560248201527f4772616e745570646174653a204170706c6963616e7473206861766520616c72604482015274656164792073746172746564206170706c79696e6760581b606482015260840161057b565b8051610d909060ca90602084019061180c565b5060c95460cb546040516001600160601b03909216917f33467082f97c58eeba98ce6c5c1582290ba95512d30bfc13786ae538dc5b842491610dd991859160ff16904290611c3b565b60405180910390a250565b6097546001600160a01b03163314610e0e5760405162461bcd60e51b815260040161057b90611e07565b610e186000611555565b565b60cc5460c954604051633183c01760e21b81526001600160a01b039092169163c60f005c91610e59916001600160601b03909116903390600401611ebe565b60206040518083038186803b158015610e7157600080fd5b505afa158015610e85573d6000803e3d6000fd5b505050506040513d601f19601f82011682018060405250810190610ea991906119f0565b610ec55760405162461bcd60e51b815260040161057b90611e87565b836001600160601b03167fb06d588651ab864052a364889f105685c62f49f056fd5f6d607ecb775840117c84843385600042604051610f0996959493929190611ee0565b60405180910390a260cb5460405163ea3b29c760e01b81526001600160601b03861660048201526001600160a01b038481169263a9059cbb926101009091049091169063ea3b29c79060240160206040518083038186803b158015610f6d57600080fd5b505afa158015610f81573d6000803e3d6000fd5b505050506040513d601f19601f82011682018060405250810190610fa59190611966565b6040516001600160e01b031960e084901b1681526001600160a01b0390911660048201526024810184905260440161069c565b60cc5460c954604051633183c01760e21b81526001600160a01b039092169163c60f005c91611017916001600160601b03909116903390600401611ebe565b60206040518083038186803b15801561102f57600080fd5b505afa158015611043573d6000803e3d6000fd5b505050506040513d601f19601f8201168201806040525081019061106791906119f0565b6110835760405162461bcd60e51b815260040161057b90611e87565b60cb805460ff191682151517905560c9546040516001600160601b03909116907f33467082f97c58eeba98ce6c5c1582290ba95512d30bfc13786ae538dc5b842490610dd99060ca9085904290611c60565b60ca80546110e290611fcb565b80601f016020809104026020016040519081016040528092919081815260200182805461110e90611fcb565b801561115b5780601f106111305761010080835404028352916020019161115b565b820191906000526020600020905b81548152906001019060200180831161113e57829003601f168201915b505050505081565b60cc5460c954604051633183c01760e21b81526001600160a01b039092169163c60f005c916111a2916001600160601b03909116903390600401611ebe565b60206040518083038186803b1580156111ba57600080fd5b505afa1580156111ce573d6000803e3d6000fd5b505050506040513d601f19601f820116820180604052508101906111f291906119f0565b61120e5760405162461bcd60e51b815260040161057b90611e87565b836001600160601b03167ff3b5fa492c7d0369bc25aa8c020036d32526b53a009e569e3bf73fb5ece72983843385854260405161124f959493929190611f1f565b60405180910390a250505050565b6097546001600160a01b031633146112875760405162461bcd60e51b815260040161057b90611e07565b6001600160a01b0381166112ec5760405162461bcd60e51b815260206004820152602660248201527f4f776e61626c653a206e6577206f776e657220697320746865207a65726f206160448201526564647265737360d01b606482015260840161057b565b61090481611555565b60008054610100900460ff161561133c578160ff1660011480156113185750303b155b6113345760405162461bcd60e51b815260040161057b90611db9565b506000919050565b60005460ff8084169116106113635760405162461bcd60e51b815260040161057b90611db9565b506000805460ff191660ff92909216919091179055600190565b919050565b600054610100900460ff166113a95760405162461bcd60e51b815260040161057b90611e3c565b610e186115a7565b6097546001600160a01b031633146109045760405162461bcd60e51b815260040161057b90611e07565b7f4910fdfa16fed3260ed0e7147f7cc6da11a60208b5b9406d12a635614ffd91435460ff161561140e57610acb836115d7565b826001600160a01b03166352d1902d6040518163ffffffff1660e01b815260040160206040518083038186803b15801561144757600080fd5b505afa925050508015611477575060408051601f3d908101601f1916820190925261147491810190611a0d565b60015b6114da5760405162461bcd60e51b815260206004820152602e60248201527f45524331393637557067726164653a206e657720696d706c656d656e7461746960448201526d6f6e206973206e6f74205555505360901b606482015260840161057b565b60008051602061205683398151915281146115495760405162461bcd60e51b815260206004820152602960248201527f45524331393637557067726164653a20756e737570706f727465642070726f786044820152681a58589b195555525160ba1b606482015260840161057b565b50610acb838383611673565b609780546001600160a01b038381166001600160a01b0319831681179093556040519116919082907f8be0079c531659141344cd1fd0a4f28419497f9722a3daafe3b4186f6b6457e090600090a35050565b600054610100900460ff166115ce5760405162461bcd60e51b815260040161057b90611e3c565b610e1833611555565b6001600160a01b0381163b6116445760405162461bcd60e51b815260206004820152602d60248201527f455243313936373a206e657720696d706c656d656e746174696f6e206973206e60448201526c1bdd08184818dbdb9d1c9858dd609a1b606482015260840161057b565b60008051602061205683398151915280546001600160a01b0319166001600160a01b0392909216919091179055565b61167c83611698565b6000825111806116895750805b15610acb5761073583836116d8565b6116a1816115d7565b6040516001600160a01b038216907fbc7cd75a20ee27fd9adebab32041f755214dbc6bffa90cc0225b39da2e5c2d3b90600090a250565b60606001600160a01b0383163b6117405760405162461bcd60e51b815260206004820152602660248201527f416464726573733a2064656c65676174652063616c6c20746f206e6f6e2d636f6044820152651b9d1c9858dd60d21b606482015260840161057b565b600080846001600160a01b03168460405161175b9190611c0c565b600060405180830381855af49150503d8060008114611796576040519150601f19603f3d011682016040523d82523d6000602084013e61179b565b606091505b50915091506117c38282604051806060016040528060278152602001612076602791396117cc565b95945050505050565b606083156117db575081611805565b8251156117eb5782518084602001fd5b8160405162461bcd60e51b815260040161057b9190611c28565b9392505050565b82805461181890611fcb565b90600052602060002090601f01602090048101928261183a5760008555611880565b82601f1061185357805160ff1916838001178555611880565b82800160010185558215611880579182015b82811115611880578251825591602001919060010190611865565b5061188c929150611890565b5090565b5b8082111561188c5760008155600101611891565b600082601f8301126118b657600080fd5b813567ffffffffffffffff808211156118d1576118d161201c565b604051601f8301601f19908116603f011681019082821181831017156118f9576118f961201c565b8160405283815286602085880101111561191257600080fd5b836020870160208301376000602085830101528094505050505092915050565b80356001600160601b038116811461137d57600080fd5b60006020828403121561195b57600080fd5b813561180581612032565b60006020828403121561197857600080fd5b815161180581612032565b6000806040838503121561199657600080fd5b82356119a181612032565b9150602083013567ffffffffffffffff8111156119bd57600080fd5b6119c9858286016118a5565b9150509250929050565b6000602082840312156119e557600080fd5b813561180581612047565b600060208284031215611a0257600080fd5b815161180581612047565b600060208284031215611a1f57600080fd5b5051919050565b600080600060608486031215611a3b57600080fd5b8335611a4681612032565b9250602084013591506040840135611a5d81612032565b809150509250925092565b600060208284031215611a7a57600080fd5b813567ffffffffffffffff811115611a9157600080fd5b611a9d848285016118a5565b949350505050565b600080600080600060a08688031215611abd57600080fd5b611ac686611932565b9450602086013567ffffffffffffffff811115611ae257600080fd5b611aee888289016118a5565b9450506040860135611aff81612032565b92506060860135611b0f81612032565b91506080860135611b1f81612032565b809150509295509295909350565b60008060008060808587031215611b4357600080fd5b611b4c85611932565b9350611b5a60208601611932565b9250604085013567ffffffffffffffff811115611b7657600080fd5b611b82878288016118a5565b949793965093946060013593505050565b60008060008060808587031215611ba957600080fd5b611bb285611932565b9350611bc060208601611932565b92506040850135611bd081612032565b9396929550929360600135925050565b60008151808452611bf8816020860160208601611f9f565b601f01601f19169290920160200192915050565b60008251611c1e818460208701611f9f565b9190910192915050565b6020815260006118056020830184611be0565b606081526000611c4e6060830186611be0565b93151560208301525060400152919050565b60608152600080855481600182811c915080831680611c8057607f831692505b6020808410821415611ca057634e487b7160e01b86526022600452602486fd5b6060880184905260808801828015611cbf5760018114611cd057611cfb565b60ff19871682528282019750611cfb565b60008d81526020902060005b87811015611cf557815484820152908601908401611cdc565b83019850505b5050859650611d0d8189018b15159052565b505050505050826040830152949350505050565b6020808252602c908201527f46756e6374696f6e206d7573742062652063616c6c6564207468726f7567682060408201526b19195b1959d85d1958d85b1b60a21b606082015260800190565b6020808252602c908201527f46756e6374696f6e206d7573742062652063616c6c6564207468726f7567682060408201526b6163746976652070726f787960a01b606082015260800190565b6020808252602e908201527f496e697469616c697a61626c653a20636f6e747261637420697320616c72656160408201526d191e481a5b9a5d1a585b1a5e995960921b606082015260800190565b6020808252818101527f4f776e61626c653a2063616c6c6572206973206e6f7420746865206f776e6572604082015260600190565b6020808252602b908201527f496e697469616c697a61626c653a20636f6e7472616374206973206e6f74206960408201526a6e697469616c697a696e6760a81b606082015260800190565b6020808252601a908201527f556e617574686f72697365643a204e6f7420616e2061646d696e000000000000604082015260600190565b6001600160601b039290921682526001600160a01b0316602082015260400190565b6001600160601b039690961686526001600160a01b0394851660208701529290931660408501526060840152901515608083015260a082015260c00190565b6001600160601b03861681526001600160a01b038516602082015260a060408201819052600090611f5290830186611be0565b606083019490945250608001529392505050565b60006001600160601b03808316818516808303821115611f9657634e487b7160e01b600052601160045260246000fd5b01949350505050565b60005b83811015611fba578181015183820152602001611fa2565b838111156107355750506000910152565b600181811c90821680611fdf57607f821691505b6020821081141561200057634e487b7160e01b600052602260045260246000fd5b50919050565b634e487b7160e01b600052600160045260246000fd5b634e487b7160e01b600052604160045260246000fd5b6001600160a01b038116811461090457600080fd5b801515811461090457600080fdfe360894a13ba1a3210667c828492db98dca3e2076cc3735a920a3ca505d382bbc416464726573733a206c6f772d6c6576656c2064656c65676174652063616c6c206661696c6564a164736f6c6343000807000a",
  "linkReferences": {},
  "deployedLinkReferences": {}
}